{
  "contractName": "Todolist",
  "abi": [
    {
      "inputs": [],
      "stateMutability": "nonpayable",
      "type": "constructor"
    },
    {
      "anonymous": false,
      "inputs": [
        {
          "indexed": false,
          "internalType": "address",
          "name": "sender",
          "type": "address"
        },
        {
          "indexed": false,
          "internalType": "string[]",
          "name": "remainingTasks",
          "type": "string[]"
        }
      ],
      "name": "Status",
      "type": "event"
    },
    {
      "inputs": [
        {
          "internalType": "string",
          "name": "taskName",
          "type": "string"
        }
      ],
      "name": "addTask",
      "outputs": [],
      "stateMutability": "nonpayable",
      "type": "function"
    },
    {
      "inputs": [],
      "name": "getAllTasks",
      "outputs": [
        {
          "internalType": "string[]",
          "name": "",
          "type": "string[]"
        }
      ],
      "stateMutability": "view",
      "type": "function"
    },
    {
      "inputs": [
        {
          "internalType": "uint256",
          "name": "_taskNumber",
          "type": "uint256"
        }
      ],
      "name": "removeTask",
      "outputs": [],
      "stateMutability": "nonpayable",
      "type": "function"
    },
    {
      "inputs": [],
      "name": "deleteAllTaks",
      "outputs": [],
      "stateMutability": "nonpayable",
      "type": "function"
    }
  ],
  "bytecode": "0x608060405234801561001057600080fd5b50336000806101000a81548173ffffffffffffffffffffffffffffffffffffffff021916908373ffffffffffffffffffffffffffffffffffffffff160217905550610e26806100606000396000f3fe608060405234801561001057600080fd5b506004361061004c5760003560e01c80636723856214610051578063779900b41461006d578063c30841171461008b578063d47d0892146100a7575b600080fd5b61006b60048036038101906100669190610734565b6100b1565b005b6100756101b8565b60405161008291906108c7565b60405180910390f35b6100a560048036038101906100a0919061091f565b61031f565b005b6100af610414565b005b3373ffffffffffffffffffffffffffffffffffffffff1660008054906101000a900473ffffffffffffffffffffffffffffffffffffffff1673ffffffffffffffffffffffffffffffffffffffff161461013f576040517f08c379a0000000000000000000000000000000000000000000000000000000008152600401610136906109cf565b60405180910390fd5b60018190806001815401808255809150506001900390600052602060002001600090919091909150908051906020019061017a9291906104b2565b507faa72639e53bed59aeff1006e37380145c0c4973f28ee4764c52f658dd01861ea3360016040516101ad929190610bdb565b60405180910390a150565b60603373ffffffffffffffffffffffffffffffffffffffff1660008054906101000a900473ffffffffffffffffffffffffffffffffffffffff1673ffffffffffffffffffffffffffffffffffffffff1614610248576040517f08c379a000000000000000000000000000000000000000000000000000000000815260040161023f90610c7d565b60405180910390fd5b6001805480602002602001604051908101604052809291908181526020016000905b8282101561031657838290600052602060002001805461028990610a7f565b80601f01602080910402602001604051908101604052809291908181526020018280546102b590610a7f565b80156103025780601f106102d757610100808354040283529160200191610302565b820191906000526020600020905b8154815290600101906020018083116102e557829003601f168201915b50505050508152602001906001019061026a565b50505050905090565b3373ffffffffffffffffffffffffffffffffffffffff1660008054906101000a900473ffffffffffffffffffffffffffffffffffffffff1673ffffffffffffffffffffffffffffffffffffffff16146103ad576040517f08c379a00000000000000000000000000000000000000000000000000000000081526004016103a490610d0f565b60405180910390fd5b600181815481106103c1576103c0610d2f565b5b9060005260206000200160006103d79190610538565b7faa72639e53bed59aeff1006e37380145c0c4973f28ee4764c52f658dd01861ea336001604051610409929190610bdb565b60405180910390a150565b3373ffffffffffffffffffffffffffffffffffffffff1660008054906101000a900473ffffffffffffffffffffffffffffffffffffffff1673ffffffffffffffffffffffffffffffffffffffff16146104a2576040517f08c379a000000000000000000000000000000000000000000000000000000000815260040161049990610dd0565b60405180910390fd5b600160006104b09190610578565b565b8280546104be90610a7f565b90600052602060002090601f0160209004810192826104e05760008555610527565b82601f106104f957805160ff1916838001178555610527565b82800160010185558215610527579182015b8281111561052657825182559160200191906001019061050b565b5b5090506105349190610599565b5090565b50805461054490610a7f565b6000825580601f106105565750610575565b601f0160209004906000526020600020908101906105749190610599565b5b50565b508054600082559060005260206000209081019061059691906105b6565b50565b5b808211156105b257600081600090555060010161059a565b5090565b5b808211156105d657600081816105cd9190610538565b506001016105b7565b5090565b6000604051905090565b600080fd5b600080fd5b600080fd5b600080fd5b6000601f19601f8301169050919050565b7f4e487b7100000000000000000000000000000000000000000000000000000000600052604160045260246000fd5b610641826105f8565b810181811067ffffffffffffffff821117156106605761065f610609565b5b80604052505050565b60006106736105da565b905061067f8282610638565b919050565b600067ffffffffffffffff82111561069f5761069e610609565b5b6106a8826105f8565b9050602081019050919050565b82818337600083830152505050565b60006106d76106d284610684565b610669565b9050828152602081018484840111156106f3576106f26105f3565b5b6106fe8482856106b5565b509392505050565b600082601f83011261071b5761071a6105ee565b5b813561072b8482602086016106c4565b91505092915050565b60006020828403121561074a576107496105e4565b5b600082013567ffffffffffffffff811115610768576107676105e9565b5b61077484828501610706565b91505092915050565b600081519050919050565b600082825260208201905092915050565b6000819050602082019050919050565b600081519050919050565b600082825260208201905092915050565b60005b838110156107e35780820151818401526020810190506107c8565b838111156107f2576000848401525b50505050565b6000610803826107a9565b61080d81856107b4565b935061081d8185602086016107c5565b610826816105f8565b840191505092915050565b600061083d83836107f8565b905092915050565b6000602082019050919050565b600061085d8261077d565b6108678185610788565b93508360208202850161087985610799565b8060005b858110156108b557848403895281516108968582610831565b94506108a183610845565b925060208a0199505060018101905061087d565b50829750879550505050505092915050565b600060208201905081810360008301526108e18184610852565b905092915050565b6000819050919050565b6108fc816108e9565b811461090757600080fd5b50565b600081359050610919816108f3565b92915050565b600060208284031215610935576109346105e4565b5b60006109438482850161090a565b91505092915050565b600082825260208201905092915050565b7f4e6f7420617574686f726f7a69656420746f20616464207461736b7320746f2060008201527f7468697320736d61727420636f6e747261637400000000000000000000000000602082015250565b60006109b960338361094c565b91506109c48261095d565b604082019050919050565b600060208201905081810360008301526109e8816109ac565b9050919050565b600073ffffffffffffffffffffffffffffffffffffffff82169050919050565b6000610a1a826109ef565b9050919050565b610a2a81610a0f565b82525050565b600081549050919050565b60008190508160005260206000209050919050565b7f4e487b7100000000000000000000000000000000000000000000000000000000600052602260045260246000fd5b60006002820490506001821680610a9757607f821691505b60208210811415610aab57610aaa610a50565b5b50919050565b60008190508160005260206000209050919050565b60008154610ad381610a7f565b610add81866107b4565b94506001821660008114610af85760018114610b0a57610b3d565b60ff1983168652602086019350610b3d565b610b1385610ab1565b60005b83811015610b3557815481890152600182019150602081019050610b16565b808801955050505b50505092915050565b6000610b528383610ac6565b905092915050565b6000600182019050919050565b6000610b7282610a30565b610b7c8185610788565b935083602082028501610b8e85610a3b565b8060005b85811015610bc957848403895281610baa8582610b46565b9450610bb583610b5a565b925060208a01995050600181019050610b92565b50829750879550505050505092915050565b6000604082019050610bf06000830185610a21565b8181036020830152610c028184610b67565b90509392505050565b7f4e6f7420617574686f726f7a69656420746f2076696577207461736b7320696e60008201527f207468697320736d61727420636f6e7472616374000000000000000000000000602082015250565b6000610c6760348361094c565b9150610c7282610c0b565b604082019050919050565b60006020820190508181036000830152610c9681610c5a565b9050919050565b7f4e6f7420617574686f726f7a69656420746f2064656c657465207461736b732060008201527f66726f6d207468697320736d61727420636f6e74726163740000000000000000602082015250565b6000610cf960388361094c565b9150610d0482610c9d565b604082019050919050565b60006020820190508181036000830152610d2881610cec565b9050919050565b7f4e487b7100000000000000000000000000000000000000000000000000000000600052603260045260246000fd5b7f4e6f7420617574686f726f7a69656420746f20656d707479207461736b73206f60008201527f6e207468697320736d61727420636f6e74726163740000000000000000000000602082015250565b6000610dba60358361094c565b9150610dc582610d5e565b604082019050919050565b60006020820190508181036000830152610de981610dad565b905091905056fea2646970667358221220a35ba4c64784ffdb735a6a9309d608ae53aa7b464e29025725d21c283dc1441b64736f6c634300080b0033",
  "immutableReferences": {},
  "source": "// SPDX-License-Identifier: MIT\r\npragma solidity >=0.4.22 <0.9.0;\r\n\r\ncontract Todolist {\r\n\r\nevent Status (address sender , string [] remainingTasks);\r\n\r\naddress private owner;\r\n\r\nconstructor () {\r\n    owner = msg.sender;\r\n}\r\n\r\n string [] private allTasks;\r\n\r\n   function addTask ( string memory taskName) public { \r\n    require(owner == msg.sender , \"Not authorozied to add tasks to this smart contract\");  \r\n     allTasks.push(taskName);\r\n       \r\n     emit Status (msg.sender , allTasks);\r\n   }\r\n\r\n   function getAllTasks () public view returns( string [] memory) {\r\n       require(owner == msg.sender , \"Not authorozied to view tasks in this smart contract\");  \r\n       return allTasks;\r\n   } \r\n  \r\n   function removeTask(uint _taskNumber) public {\r\n       require(owner == msg.sender , \"Not authorozied to delete tasks from this smart contract\");  \r\n       delete allTasks[_taskNumber];\r\n       emit Status (msg.sender , allTasks);\r\n   }\r\n\r\n   function deleteAllTaks () public {\r\n       require(owner == msg.sender , \"Not authorozied to empty tasks on this smart contract\");  \r\n      delete allTasks;  \r\n   }\r\n}",
  "sourcePath": "C:\\Users\\Michael\\ToDo List App with Solidity\\contracts\\TodoList.sol",
  "compiler": {
    "name": "solc",
    "version": "0.8.11+commit.d7f03943.Emscripten.clang"
  },
  "schemaVersion": "3.4.4",
  "updatedAt": "2022-01-11T22:03:40.208Z",
  "devdoc": {
    "kind": "dev",
    "methods": {},
    "version": 1
  },
  "userdoc": {
    "kind": "user",
    "methods": {},
    "version": 1
  }
}